:020000040800F2
:10000000B81600209D010008A5010008A7010008FE
:10001000A9010008AB010008AD01000800000000C4
:10002000000000000000000000000000AF01000818
:10003000B101000800000000B301000861090008D8
:10004000B7010008B7010008B7010008B7010008B0
:10005000B7010008B7010008B7010008B7010008A0
:10006000B7010008B7010008B7010008B701000890
:10007000B7010008B7010008B7010008B701000880
:10008000B7010008B7010008B7010008B701000870
:10009000B7010008B7010008B7010008B701000860
:1000A000B7010008B7010008B7010008B701000850
:1000B000B7010008B7010008B7010008B701000840
:1000C000B7010008B7010008B7010008B701000830
:1000D000B7010008B7010008B7010008B701000820
:1000E000B7010008B7010008B7010008B701000810
:1000F000B7010008B7010008B7010008B701000800
:10010000B7010008B7010008B7010008B7010008EF
:10011000B7010008B7010008B7010008B7010008DF
:10012000B7010008B7010008B7010008B7010008CF
:10013000B7010008B7010008B7010008B7010008BF
:10014000B7010008B7010008B7010008B7010008AF
:10015000B7010008B7010008B7010008B70100089F
:10016000B7010008B7010008B7010008B70100088F
:10017000B7010008B7010008B7010008000000003F
:10018000B7010008B7010008DFF80CD000F044F810
:100190000048004741100008B81600200648804774
:1001A00006480047FEE7FEE7FEE7FEE7FEE7FEE75C
:1001B000FEE7FEE7FEE7FEE769090008890100089F
:1001C00040EA01039B0703D009E008C9121F08C0D9
:1001D000042AFAD203E011F8013B00F8013B521E59
:1001E000F9D27047D2B201E000F8012B491EFBD2D0
:1001F00070470022F6E710B513460A460446194632
:10020000FFF7F0FF204610BD421C10F8011B00292B
:10021000FBD1801A70470000064C074D06E0E068ED
:1002200040F0010394E8070098471034AC42F6D33D
:10023000FFF7AEFF201400084014000870B586B028
:1002400004460D4646492068884221D100BF00205F
:1002500000904448006840F00400424908600846A5
:10026000006800F00400009000BF00BF00BF002045
:1002700000903C481030006840F4002039491031AB
:1002800008600846006800F40020009000BF30E0DD
:1002900000BF002000903348006840F0040031495E
:1002A00008600846006800F00400009000BF00BF2E
:1002B00000BF002000900846006840F00800086079
:1002C0000846006800F00800009000BF00BF00BFB3
:1002D0000020009023481030006840F4801021492D
:1002E000103108600846006800F48010009000BFDC
:1002F00000BF0220029001200390022004901849C0
:10030000206888420FD1184E08200590C001019046
:1003100001A9304600F02CF8F014019001A93046F4
:1003200000F026F80FE0104E0820059040020190E2
:1003300001A9304600F01CF80C4E0420019001A9E0
:10034000304600F015F8656000212161E160A16090
:100350000C216161204600F0EFF906B070BD00008D
:10036000004C00403038024000080240000C0240BF
:10037000F8B502460B460025002400200021DCE0F1
:10038000012606FA01F51E6806EA0504AC4273D19F
:100390005E68022E02D05E68122E13D1CF0802F1E1
:1003A000200656F827004E07F70E0F26BE40B04332
:1003B0004F07FF0E1E69BE403043CF0802F12006F2
:1003C00046F8270010684F000326BE40B0431E7950
:1003D00006F003064F00BE40304310605E68012EF9
:1003E00008D05E68022E05D05E68112E02D05E68CD
:1003F000122E13D190684F000326BE40B0434F0029
:10040000DE68BE4030439060506801268E40B043A5
:100410001E79C6F300168E4030435060D0684F00FE
:100420000326BE40B0434F009E68BE403043D060BC
:100430005E6806F08056B6F1805F7DD100BF002671
:100440000096404E366846F480463E4F3E603E463B
:10045000366806F48046009600BF00BF3A4E8F080B
:1004600056F827008E07370F0F26BE40B043374E91
:10047000B24202D1002624E05EE0354EB24201D104
:1004800001261EE0334EB24201D1022619E0324E5F
:10049000B24201D1032614E0304EB24201D104260B
:1004A0000FE02F4EB24201D105260AE02D4EB24296
:1004B00001D1062605E02C4EB24201D1072600E00C
:1004C00008268F073F0FBE4030431F4E8F0846F867
:1004D0002700264E3068A0435E6806F48036B6F5E5
:1004E000803F00D12043214E3060361D3068A0434C
:1004F0005E6806F40036B6F5003F00D120431B4E7F
:10050000361D3060361D3068A0435E6806F48016E4
:10051000B6F5801F00D12043144E08363060361DDA
:100520003068A0435E6806F40016B6F5001F00D1DF
:1005300020430E4E0C363060491C1029FFF420AFCA
:10054000F8BD000044380240083801400000024075
:100550000004024000080240000C0240001002406B
:100560000014024000180240001C0240003C014000
:1005700001480068704700008000002003480068C0
:100580000349097808440149086070478000002049
:100590008800002010B50A48006840F4007008493F
:1005A00008600846006840F480600860032000F09E
:1005B0006FF80F2000F006F800F02AF8002010BDB8
:1005C000003C024070B504460E4800784FF47A7142
:1005D000B1FBF0F00C490968B1FBF0F5284600F0DA
:1005E00091F808B1012070BD102C07D200222146DD
:1005F000501E00F00EF80548046001E00120F2E70B
:100600000020F0E7880000208C00002084000020FB
:1006100070472DE9F05F80460D461646002700F032
:10062000BFFB074639462A46334601F00700C0F1B2
:10063000070ABAF1040F02D94FF0040A01E0C0F131
:10064000070AD14600F1040ABAF1070F02D24FF0AF
:10065000000A01E0A0F1030AD4464FF0010A0AFAA9
:1006600009FAAAF1010A0AEA020A0AFA0CFA4FF098
:10067000010B0BFA0CFBABF1010B0BEA030B4AEA83
:100680000B042146404600F093FBBDE8F09F0000BC
:1006900000BF00F00702064B19684FF6FF03194030
:1006A000044B0B4343EA0221014B196000BF704722
:1006B0000CED00E00000FA050148006870470000FA
:1006C0008C00002000B5FFF7F7FF04490968C1F36B
:1006D0008221034A515CC84000BD00000838024036
:1006E0007A13000800B5FFF7E7FF04490968C1F372
:1006F0004231034A515CC84000BD00000838024046
:100700007A13000870B504462546681EB0F1807F54
:1007100001D301200FE0681E4FF0E02148610F2156
:100720004FF0FF3000F044FB00204FF0E0218861E3
:1007300007200861002070BD10B504460CB90120E7
:1007400010BDA06900B100E000BF94F8390028B9DD
:10075000002084F83800204600F027F8242084F890
:1007600039002068C06820F400502168C860204625
:1007700000F02CF92068006920F49040216808619D
:100780002068406920F02A00216848612068C0681C
:1007900040F400502168C8600020E063202084F805
:1007A000390084F83A000020CAE770472DE9F84381
:1007B00004460D4616461F464FF0000994F83A00CD
:1007C000202860D105B116B90120BDE8F88300BF2B
:1007D00094F83800012801D10220F6E7012084F8BE
:1007E000380000BF0020E063222084F83A00FFF7C1
:1007F000BFFE8146A685E68539E0E08D401EE08596
:10080000A068B0F5805F1BD14B4600222021204616
:10081000009700F08FFA08B10320D6E7A8462069B8
:1008200038B920684068C0F30800A8F80000AD1C83
:100830001DE020684068C0B2A8F800006D1C16E0FA
:100840004B46002220212046009700F073FA08B1A1
:100850000320BAE7206920B92068406805F8010B39
:1008600005E02068406800F07F0005F8010BE08D8E
:100870000028C2D1202084F83A0000BF002084F86C
:10088000380000BFA1E702209FE72DE9F8430446A6
:100890000D4616461F464FF0000994F839002028EF
:1008A0005CD105B116B90120BDE8F88300BF94F80A
:1008B0003800012801D10220F6E7012084F8380031
:1008C00000BF0020E063212084F83900FFF750FECC
:1008D0008146A684E6842BE0E08C401EE084A0687C
:1008E000B0F5805F16D14B4600228021204600974C
:1008F00000F020FA08B10320D6E7A846B8F80000B7
:10090000C0F3080021684860206908B9AD1C0FE0F9
:100910006D1C0DE04B46002280212046009700F020
:1009200009FA08B10320BFE715F8010B21684860F8
:10093000E08C0028D0D14B46002240212046009771
:1009400000F0F8F908B10320AEE7202084F8390060
:1009500000BF002084F8380000BFA5E70220A3E70D
:1009600010B5FFF70BFE10BD1448006840F470008E
:10097000124908601248006840F001001049086000
:1009800000200F49083108600D4800680D490840F3
:100990000B4908600C48091D0860081F006820F416
:1009A0008020091F0860002005490C3108604FF0C5
:1009B00000600249803908607047000088ED00E05F
:1009C00000380240FFFFF6FE103000242DE9F04110
:1009D00004462068006920F44050E168084321681B
:1009E00008612169A068084361690843E16940EA38
:1009F00001052068C06849F20C61884328432168DA
:100A0000C8602068406920F44070A16908432168EB
:100A10004861E069B0F5004F7ED1C4492068884242
:100A200003D0C349206888425DD1FFF75BFE00EB2D
:100A3000C00101EB001061684900B0FBF1F06421D6
:100A4000B0FBF1F00601FFF74DFE00EBC00101EB3A
:100A5000001061684900B0FBF1F7FFF743FE00EBBF
:100A6000C00101EB001061684900B0FBF1F06421A6
:100A7000B0FBF1F000EBC00101EB0010A7EB800030
:100A8000322101EBC0006421B0FBF1F000F0F8006E
:100A900006EB4006FFF726FE00EBC00101EB00105D
:100AA00061684900B0FBF1F7FFF71CFE00EBC001E5
:100AB00001EB001061684900B0FBF1F06421B0FB6C
:100AC000F1F000EBC00101EB0010A7EB8000322138
:100AD00001EBC0006421B0FBF1F000F007003044EE
:100AE0002168886020E1FFF7EDFD00EBC00101EB1C
:100AF000001061684900B0FBF1F06421B0FBF1F037
:100B00000601FFF7DFFD00EBC00101EB001061689B
:100B10004900B0FBF1F700E045E0FFF7D3FD00EB43
:100B2000C00101EB001061684900B0FBF1F06421E5
:100B3000B0FBF1F000EBC00101EB0010A7EB80006F
:100B4000322101EBC0006421B0FBF1F000F0F800AD
:100B500006EB4006FFF7B6FD00EBC00101EB00100D
:100B600061684900B0FBF1F7FFF7ACFD00EBC00195
:100B700001EB001061684900B0FBF1F06421B0FBAB
:100B8000F1F000EBC00101EB0010A7EB8000322177
:100B900001EBC0006421B0FBF1F000F0070030442D
:100BA00021688860C0E061492068884203D06049BC
:100BB000206888425CD1FFF795FD00EBC00101EB96
:100BC000001061688900B0FBF1F6FFF78BFD00EBC8
:100BD000C00101EB001061688900B0FBF1F06421F5
:100BE000B0FBF1F000EBC00101EB0010A6EB8000C0
:100BF000322101EB00106421B0FBF1F000F0F006AF
:100C0000FFF770FD00EBC00101EB00106168890087
:100C1000B0FBF1F06421B0FBF1F006EB0016FFF73A
:100C200061FD00EBC00101EB001061688900B0FBC1
:100C3000F1F7FFF757FD00EBC00101EB0010616811
:100C40008900B0FBF1F06421B0FBF1F000EBC001D2
:100C500001EB0010A7EB8000322101EB00106421B2
:100C6000B0FBF1F000F00F003044216888605BE0D9
:100C7000FFF728FD00EBC00101EB0010616889005F
:100C8000B0FBF1F6FFF71EFD00EBC00101EB001019
:100C900061688900B0FBF1F06421B0FBF1F000EB7A
:100CA000C00101EB0010A6EB8000322101EB001027
:100CB0006421B0FBF1F000F0F006FFF703FD00EB5C
:100CC000C00101EB001061688900B0FBF1F0642104
:100CD000B0FBF1F006EB0016FFF7F4FC00EBC001EF
:100CE00001EB001061688900B0FBF1F7FFF7EAFC47
:100CF00000EBC00101EB001061688900B0FBF1F06E
:100D00006421B0FBF1F000EBC00101EB0010A7EB98
:100D10008000322101EB00106421B0FBF1F000F003
:100D20000F00304421688860BDE8F0810010014068
:100D3000001401402DE9F04104460D46174698463F
:100D4000069E21E0701CF8B12EB1FFF711FCA0EB5C
:100D50000800B04218D92068C06820F4D07021681B
:100D6000C8602068406920F00100216848612020A7
:100D700084F8390084F83A0000BF002084F8380075
:100D800000BF0320BDE8F081206800682840A84229
:100D900001D1012000E00020B842D3D00020F1E7CB
:100DA00002480068C0F30220704700000CED00E02C
:100DB00010B5002804DB0A07130E054A135406E099
:100DC0000A07140E034A00F00F031B1FD45410BD72
:100DD00000E400E018ED00E002E008C8121F08C1BE
:100DE000002AFAD170477047002001E001C1121FAC
:100DF000002AFBD1704770477047704770477047B3
:100E0000704770477047002000E0401C4CF25031A2
:100E10008842FAD37047000010B500240BE004EBC1
:100E2000C40101EB0411054A02EB41003221FFF736
:100E3000E0F9601CC4B2142CF1DB10BD18010020D5
:100E40002DE9F34F85B089464C464846FFF7DCF95B
:100E500000EB090B002004900390029001904FF0EA
:100E600016085C4500D1BAE0B8F1000F00D1B7E038
:100E700000BF5D4810F808005C4947185C4810F84E
:100E800008505C4810F808000646002E1FDD394661
:100E9000BB195A1E16E08A4200D214E0531A01EB25
:100EA0006300237890F800C0634501DA421E09E030
:100EB000237890F800C0634501DD411C02E0C31BAC
:100EC0001D442FE0E7E700BF3744354400BF4A48E0
:100ED00010F808000646002E23DD394607EB4603CE
:100EE0009A1E1AE08A4200D218E0531A6FF0010CE1
:100EF0000CEA63035818237890F800C0634501DAC0
:100F0000821E0AE0237890F801C0634501DD811C50
:100F100003E0C31B05EB630504E0E3E700BF3544D2
:100F200000BF00BF3548455D354810F8058035489D
:100F3000405D00B949E03348405D334900EB010AA8
:100F40001AF8010B00903AE01AF8011B21B10129AF
:100F500009D0022932D10FE04FF47A722BA1059803
:100F600000F06CF92AE04FF47A722EA1059800F097
:100F700065F9601C049021E0601C0390DDE9030129
:100F8000401A0290029800F0C7F80190DDE90102D2
:100F90000499FFF715F94FF47A7226A1059800F02D
:100FA0004DF94FF47A720199059800F047F94FF422
:100FB0007A721BA1059800F041F900BF00BF0098AC
:100FC000411E00910028BFD100BFB8F1000F00D131
:100FD00006E0601C0446584500D04AE700BF00BF49
:100FE00007B0BDE8F08F0000651200087D12000810
:100FF000E1120008B1120008C9120008F912000835
:101000003C130008531300085E1200082B434946A6
:10101000535220636F6D6D616E6420666F756E64F0
:101020000D0A0000535441495020666F756E640DDF
:101030000A00000053544149502069733A200000CF
:1010400000BFFFF7A7FA2848284908604FF4E131AC
:101050002648FFF7F3F82648264908604FF4E131A7
:101060002448FFF7EBF84FF47A7223A11F4800F0F1
:10107000E5F8002429E000BF4FF47A712348FFF718
:10108000B8F8FFF7C9FE224800EB04108289204817
:1010900000EB04100168174800F0D0F81C4800EB82
:1010A00004108189134800F085F8142219490F486B
:1010B00000F068F8052C04D1164932310B48FFF7CF
:1010C000BFFEFFF7A0FE601CC4B2082CD3DB0AE011
:1010D000FFF7A2FEFA21074800F06CF814220D4930
:1010E000024800F04FF8F3E700500040D80000201D
:1010F000004C0040980000200D0A535441525449BE
:101100004E47202E2E2E0D0A00000000D00C00208D
:101110000000002018010020F0B50B30154D20F024
:1011200007010024144A0FE003688B420BD38B4263
:1011300005D95E1A43184768C3E9006700E04368B1
:10114000136002C004E0021D10680028ECD12046A4
:10115000002802D1286808B10020F0BD064A0748DF
:101160001060074A121A22F00702C0E90024012089
:101170002860D7E79400002090000020BC100020D9
:10118000B81200202DE9F04107460D46164600240E
:101190000CE004EBC40000EB041005EB40014FF43D
:1011A0007A72384600F04AF8601CC4B2B442F0DBF0
:1011B000BDE8F081F8B507460E460024002537E06B
:1011C00000200090B300012269463846FFF7EEFA8E
:1011D0009DF8002005EBC50000EB0510164901EB5A
:1011E00040032046641C1A5405EBC50000EB0510B3
:1011F00001EB4001601E085C00B91AE005EBC50078
:1012000000EB05100C4901EB4001A01E085C0D2805
:101210000AD105EBC50000EB0510074901EB4001C1
:10122000601E085C0A2801D0322C01D16D1C0024FC
:10123000C6E700BFF8BD0000180100202DE9F0410D
:1012400006460C4615462046FEF7DEFF87B22B46C3
:101250003A4621463046FFF718FBBDE8F081000111
:10126000000101010200000205070A0C0F1114160B
:10127000181A1C1E1F232527292B2C2F3330392EFB
:10128000303930392E303930392E3039303922303A
:1012900039436349694666537352723A222B53733A
:1012A00054744161496950702C225373222B53733B
:1012B000000000010001000100010202020202011F
:1012C0000402020202010304000001010101010104
:1012D000010100000000000000000000000000000C
:1012E0000000000205070A0C0F1114171A1D202315
:1012F000252A2D303336383C41000102000103011C
:101300000403010501060501070108070109090198
:101310000A0A010B0B010C0C010D0D010E010F103F
:1013200011110112120113130114140115150116E4
:10133000010F1111010F101111010100020003042E
:1013400005060708170A0B0C0D0E0F0109101112E4
:10135000131415000000000000000005000000004C
:101360000001000000000000000300000000000079
:101370000000010203040607080900000000010242
:101380000304000041542B43574A41505F444546F3
:101390003D225465656A61797979222C2261626304
:1013A0006431773334220D0A0000000041542B438E
:1013B00049505345525645523D312C38300D0A00A4
:1013C00041542B43574D4F44455F4445463D310DF5
:1013D0000A00000041542B4349504D55583D310DF2
:1013E0000A0000004F4B0D0A0000000041542B433F
:1013F000574C41500D0A000041542B474D520D0AE5
:101400000000000041542B43494653520D0A00008E
:1014100041540D0A000000002B43574A41503A0046
:10142000401400080000002098000000D80D0008BB
:10143000D81400089800002020160000E80D0008CD
:1014400010140008E4130008050E000864000000F2
:10145000F8130008E4130008030E000864000000FD
:10146000C0130008E4130008010E00086400000027
:10147000EC130008E4130008FF0D0008DC05000071
:101480008413000818140008FD0D0008E80300008C
:1014900004140008E4130008F70D000864000000BD
:1014A000D4130008E4130008F90D000864000000DC
:1014B000AC130008E4130008FB0D0008F401000061
:1014C0000000000010000000010000000024F400F3
:0814D000000000000000000014
:040000050800018965
:00000001FF
